:020000040800F2
:10000000A8220020850200088D0200088F02000847
:100010009102000893020008950200080000000009
:10002000000000000000000000000000970200082F
:1000300099020008000000009B0200089D020008D1
:100040009F0200089F0200089F0200089F0200080C
:100050009F0200089F0200089F0200089F020008FC
:100060009F0200089F0200089F0200089F020008EC
:100070009F0200089F0200089F0200089F020008DC
:100080009F0200089F0200089F0200080000000075
:100090000000000000000000000000009F020008B7
:1000A0009F0200089F0200089F0200089F020008AC
:1000B000A90700089D0A00089F0200089F02000887
:1000C0009F0200089F0200089F0200089F0200088C
:1000D0009F0200089F0200089F0200080000000025
:1000E0009F0200089F0200089F0200080000000015
:1000F0000000000000000000000000009F02000857
:10010000000000009F0200089F0200089F020008F4
:1001100000000000000000000000000000000000DF
:100120009F0200089F0200089F0200089F0200082B
:100130009F02000800000000000000000000000016
:100140000000000000000000000000009F02000806
:100150009F0200089F0200089F0200089F020008FB
:100160009F0200089F02000800000000000000003D
:10017000000000000000000000000000000000007F
:10018000000000009F0200080000000000000000C6
:100190009F02000800F002F800F065F80AA090E85D
:1001A000000C82448344AAF10107DA4501D100F032
:1001B0005AF8AFF2090EBAE80F0013F0010F18BF9A
:1001C000FB1A43F001031847D4100000F41000009C
:1001D00010F8013B0A4413F0030408BF10F8014B68
:1001E0001D1108BF10F8015B641E05D010F8016BEB
:1001F000641E01F8016BF9D1002D15D010F8014BE8
:1002000003F00C030C2BA1EB04040ABF10F8013B14
:10021000A4EB8314A4EB032405F1010314F8016B90
:100220005B1E01F8016BF9D5914238BF10F8013B14
:10023000D1D370470023002400250026103A28BFA0
:1002400078C1FBD8520728BF30C148BF0B60704748
:10025000642900F07380002070471FB501F018F882
:100260001FBD10B510BD00F0EEF91146FFF7F5FF08
:1002700000F03AFD00F00CFA03B4FFF7F2FF03BC04
:1002800000F010FA0948804709480047FEE7FEE7FA
:10029000FEE7FEE7FEE7FEE7FEE7FEE7FEE7FEE736
:1002A00004480549054A064B704700004507000809
:1002B00095010008A81C0020A8220020A81E0020EC
:1002C000A81E00200FB41CB5074B06AA7B44694644
:1002D0000090059800F09FF90020694600F0AEF903
:1002E0001CBC5DF814FB00006D03000070B50446F3
:1002F00085690068C10601D5302600E02026C007C8
:1003000007D070BDD4E9012130469047206A401CD7
:1003100020626D1EF6D570BD70B504468569007803
:10032000C00707D170BDD4E9012120209047206A81
:10033000401C20626D1EF6D570BD00002DE9F04115
:100340000646002410687529314616A510D0AFF373
:100350000080002802DA404213A507E031688A07CE
:1003600001D512A502E0490704D511A5012401E039
:10037000AFF3008000210A2206F1240709E0B0FB58
:10038000F2FCB0FBF2F302FB1C003030785418464C
:10039000491C0028F3D123462A463046BDE8F041E7
:1003A00000F0DAB8000000002D0000002B00000073
:1003B000200000002DE9F0474FF0000A894604466E
:1003C000C0F820A02046E1688847002876D025287C
:1003D00006D0D4E901219047206A401C2062F1E751
:1003E000E168204600268847C4F81CA0054600277F
:1003F000C4F818A02A2D09D0284600F055FB38B3C0
:1004000004EB8708303DC8F8185019E059F8041B70
:10041000204604EB87029161E1688847012F054679
:1004200018D1E069002820DA26F020061DE0D8F86F
:10043000180000EB800005EB40003038C8F81800C9
:100440002046E1688847054600F02EFB0028EED1E3
:10045000012F0AD02E2D08D12046E16888477F1C45
:100460000546022F46F02006C4DBA069002803DA07
:10047000404246F00106A061F00701D026F01006C8
:100480006C2D0AD0682D08D04C2D39D06A2D35D06E
:10049000742D35D07A2D33D016E0E1682F462046F2
:1004A0008847B84205460AD16C2F27D04FF48060A8
:1004B000E168064320468847054605E027E06C2FA3
:1004C0001AD04FF4807006430DB3A5F141001928EE
:1004D00002D8203546F400664A4629462046266062
:1004E0004E46FFF7B5FE80B101280BD0F61D26F071
:1004F000070000F1080965E74020E4E78020D7E71E
:100500000020D5E706F104095CE7284661E7206A88
:10051000BDE8F08710B5431C02E010F8011B71B173
:100520008107FAD14FF0013202C88C1A8C4314EAC9
:10053000C211F9D0C01A0A0603D0C01E10BDC01ADD
:1005400010BD0A0401D0801E10BD0902FCD0401E5F
:1005500010BD7047704770472DE9F0470D4699462A
:100560009246044600F124080168880604D5E06933
:1005700021F01001216000E00120A84201DD471BAD
:1005800000E00027A1697A1902EB0900081AA061AE
:100590002078C00602D42046FFF7A8FE002608E017
:1005A000D4E901211AF806009047206A401C761C05
:1005B00020624E45F4DB2078C0060AD52046FFF7BE
:1005C00095FE06E0D4E9012130209047206A401CC6
:1005D0002062381EA7F10107F4DC07E0D4E901210D
:1005E00018F805009047206A401C2062281EA5F1DB
:1005F0000105F3DC2046FFF78FFE2078000602D5C8
:100600000220BDE8F0870120FBE7000001694A1CD9
:1006100002610878704700B58FB0CDE90131002143
:10062000059105497944CDE9031011466846FFF765
:10063000C1FE0FB000BD0000E5FFFFFF0A6802F831
:10064000010B0A607047754600F028F8AE460500B9
:100650006946534620F00700854618B020B5FFF7DD
:100660001FFEBDE820404FF000064FF000074FF09E
:1006700000084FF0000B21F00701AC46ACE8C009C0
:10068000ACE8C009ACE8C009ACE8C0098D467047C9
:100690000446AFF300802046FFF7EEFD00487047A8
:1006A000481C002001491820ABBEFEE726000200CE
:1006B0007047000000B503464FF0407010490860D5
:1006C000DBB2081F006800F47F40091F086008467D
:1006D0000068184308600815091D0860002000F034
:1006E0003BFA4FF0806006490860042B03DA0220D1
:1006F00000F032FA02E0012000F02EFA00BD000006
:10070000180802400748006840F0060005490860E4
:100710004FF05530044908604FF0C060024918316D
:1007200008607047303802400008024000F01F02A5
:10073000012191404209920002F1E022C2F8001129
:10074000704700001448006840F4700012490860C7
:100750001248006840F001001049086000200F496D
:10076000083108600D4800680D4908400B490860D1
:100770000C48091D0860081F006820F48020091F2C
:100780000860002005490C3108604FF00060024904
:10079000803908607047000088ED00E000380240B2
:1007A000FFFFF6FE1030002410B500204FF080410E
:1007B0000861A848406980F00200A6494861A6483F
:1007C000006840F00200A4490860A4480068401E88
:1007D000A3490860A3480068401E091D0860002066
:1007E0009F49091F086060209D4910390860012059
:1007F0009B49083908609C480068D0B99B49086843
:10080000411C9A4A11609A4951F8201000EE101AC2
:10081000F8EEC00A974991ED001AB7EE000A11EE02
:10082000200ABCEEC00A10EE101A8D4A0C3211607C
:10083000F2E08D48006801281AD18C490868411CF3
:100840008A4A11608C4951F8201000EE101AF8EE17
:10085000C00A884991ED001AB7EE000A11EE200A8D
:10086000BCEEC00A10EE101A7D4A0C321160D3E0C3
:100870007D48006802281AD17C490868411C7B4ADF
:1008800011607E4951F8201000EE101AF8EEC00AEF
:10089000784991ED001AB7EE000A11EE200ABCEE7D
:1008A000C00A10EE101A6E4A0C321160B4E06E48A5
:1008B000006803281AD16D490868411C6B4A116011
:1008C0006F4951F8201000EE101AF8EEC00A69497D
:1008D00091ED001AB7EE000A11EE200ABCEEC00A34
:1008E00010EE101A5E4A0C32116095E05E48006806
:1008F00004281AD15D490868411C5C4A11606149AD
:1009000051F8201000EE101AF8EEC00A594991ED86
:10091000001AB7EE000A11EE200ABCEEC00A10EE73
:10092000101A4F4A0C32116076E04F4800680528D3
:100930001AD14E490868411C4C4A1160524951F87D
:10094000201000EE101AF8EEC00A4A4991ED001A84
:10095000B7EE000A11EE200ABCEEC00A10EE101A23
:100960003F4A0C32116057E03F48006806281AD110
:100970003E490868411C3D4A1160444951F8201025
:1009800000EE101AF8EEC00A3A4991ED001AB7EEDF
:10099000000A11EE200ABCEEC00A10EE101A304A0E
:1009A0000C32116038E03048006807281AD12F490E
:1009B0000868411C2D4A1160354951F8201000EE9D
:1009C000101AF8EEC00A2B4991ED001AB7EE000A92
:1009D00011EE200ABCEEC00A10EE101A204A0C32AA
:1009E000116019E021490868411C204A1160294919
:1009F00051F8201000EE101AF8EEC00A1D4991EDD2
:100A0000001AB7EE000A11EE200ABCEEC00A10EE82
:100A1000101A134A0C321160144800681E49096804
:100A2000884202D10020114908600D481C38006836
:100A300040F001000A491C3908600948283800685C
:100A400040F001000649283908601D20FFF76EFEBE
:100A500062B610BD00000240403802400400002091
:100A6000280400400800002010000020240000207E
:100A70002800002020000020A80C002048030020AF
:100A800068060020E812002088090020C80F002016
:100A9000081600202819002000000020002001492D
:100AA000086070471004004030380A2801D2012045
:100AB00070470020704700001048006840F00100B7
:100AC0000E4908600E48006820F003000C490860D9
:100AD0000846006840F003000860084814300068C9
:100AE00040F4807005491431086000200549886091
:100AF0000846806840F00100886070473038024046
:100B000000000240002001400848006800EE100A82
:100B1000F8EEC00A0648006800EE100AB8EEC00AF7
:100B200080EE801A034880ED001A704718000020FC
:100B30000C0000202000002004480068C821484321
:100B4000034991FBF0F0034908607047140000204E
:100B5000005900010400002007E0002100E0491CCA
:100B600040F67B429142FADB401E0028F5DC7047DC
:100B700010B500241EE02C48806840F080402A49CF
:100B8000886000BF2848006800F002000028F9D003
:100B90002548C46C0120FFF78DFD24A000F096F9D4
:100BA000C020FFF787FD204600F082F940F2E240C6
:100BB000FFF7D2FF2148006900F008000028DAD0D2
:100BC0001F480068C0B91F48046001201C49086024
:100BD00000F054FB0120FFF76DFD1BA000F076F93B
:100BE000C020FFF767FD1748006800F061F940F288
:100BF000E240FFF7B1FF15E01748046000201049FC
:100C000008600120FFF756FD14A000F05FF9C02036
:100C1000FFF750FD1048006800F04AF940F2E2404A
:100C2000FFF79AFF10BD00000020014043555252CB
:100C3000454E542056414C5545203A000000024094
:100C40001C000020140000204652455155454E43DB
:100C500059204953203A000018000020444F4D41CC
:100C6000494E204953203A0000B500BF12480069A0
:100C700000F480700028F9D000F0F6FA0E48006900
:100C800000F460600C49086108460069C0F3422026
:100C90000A49086008484069C0F30B0006494861EA
:100CA000084640690549096840EA0130024948613F
:100CB0006420FFF751FF00BD00000240100000203B
:100CC0000848006840F001000649086008460068CE
:100CD00040F0020008600846006840F00400086028
:100CE0007047000030380240FFF7EAFFFFF724FFAB
:100CF000FFF70AFF00F08AF800F060F8FFF7DCFE6B
:100D000000F07EF840E02148006900F080000028F3
:100D10003AD000201E49086072B6FFF7A5FFFFF722
:100D200027FF0120FFF7C6FC1AA000F0CFF8C02073
:100D3000FFF7C0FC1B48006800F0BAF8FFF7FCFEA4
:100D40004FF4FA70FFF708FFFFF712FF0120FFF7DB
:100D5000B1FC15A000F0BAF8C020FFF7ABFC1548B5
:100D6000006800F0A5F8FFF7CFFE4FF4FA70FFF728
:100D7000F3FE00201049086000F052F800F040F83F
:100D80004FF4FA70FFF7E8FEBDE7000000000240F4
:100D9000240000204652455155454E4359204953A1
:100DA000203A000014000020444F4D41494E204994
:100DB00053203A00180000201C00002000B5FFF767
:100DC000A1FC1E20FFF7C8FE3020FFF773FC0A20AD
:100DD000FFF7C2FE3020FFF76DFC0120FFF7BCFEDD
:100DE0003020FFF767FC3820FFF764FC0620FFF790
:100DF00061FC0120FFF75EFC0F20FFF75BFC00BDEC
:100E000010B500F097F800F0B9F810BD4FF055306C
:100E1000024908600020486170470000000002405D
:100E200030B587B0002400250120FFF743FC1748A8
:100E300003681748026817A101A8FFF743FA00BF2B
:100E400001A8FFF767FB054600BF04E001A9085DA4
:100E500000F04CF8641CAC42F8DDC020FFF72AFC1F
:100E60001048026810A101A8FFF72CFA002401A87D
:100E7000FFF750FB054600BF04E001A9085D00F044
:100E800035F8641CAC42F8DD07B030BD100000201E
:100E90001400002046523A2534642020574E3A254B
:100EA0003164000018000020444D3A2534640000ED
:100EB0001CB50446224604A16846FFF703FA6846BB
:100EC00000F004F81CBD0000256C640070B50546F8
:100ED00000242846FFF71EFB064600BF03E0285DFE
:100EE00000F004F8641CB442F9DD70BD00B503469F
:100EF0004FF480700E49086040040860DBB2081FA0
:100F0000006800F47F40091F086008460068184325
:100F100008600815091D08600020FFF71DFE4FF04E
:100F20008060034908600120FFF716FE00BD000045
:100F30001808024010B50E48006840F001000C4946
:100F400008600C480068401E090688620A4800686C
:100F5000401EC862002048620846C06840F0010098
:100F6000C860012008601C20FFF7E0FB10BD0000F6
:100F700040380240040000200800002010B5A948B5
:100F8000006A40F00070A74908620846006820F433
:100F9000405008600846006840F400500860A248CD
:100FA000006840F00200A0490860A0480068401EA8
:100FB0009F4908609F480068401E091D0860002086
:100FC0009B49091F08606020994910390860012079
:100FD00097490839086098480068D0B99749086867
:100FE000411C964A1160964951F8201000EE101AE3
:100FF000F8EEC00A934991ED001AB7EE000A11EE1F
:10100000200ABCEEC00A10EE101A894A0C32116098
:10101000F2E08948006801281AD188490868411C13
:10102000864A1160884951F8201000EE101AF8EE37
:10103000C00A844991ED001AB7EE000A11EE200AA9
:10104000BCEEC00A10EE101A794A0C321160D3E0DF
:101050007948006802281AD178490868411C774A03
:1010600011607A4951F8201000EE101AF8EEC00A0B
:10107000744991ED001AB7EE000A11EE200ABCEE99
:10108000C00A10EE101A6A4A0C321160B4E06A48C5
:10109000006803281AD169490868411C674A116031
:1010A0006B4951F8201000EE101AF8EEC00A65499D
:1010B00091ED001AB7EE000A11EE200ABCEEC00A4C
:1010C00010EE101A5A4A0C32116095E05A48006826
:1010D00004281AD159490868411C584A11605D49D1
:1010E00051F8201000EE101AF8EEC00A554991EDA3
:1010F000001AB7EE000A11EE200ABCEEC00A10EE8C
:10110000101A4B4A0C32116076E04B4800680528F3
:101110001AD14A490868411C484A11604E4951F8A1
:10112000201000EE101AF8EEC00A464991ED001AA0
:10113000B7EE000A11EE200ABCEEC00A10EE101A3B
:101140003B4A0C32116057E03B48006806281AD130
:101150003A490868411C394A1160404951F8201049
:1011600000EE101AF8EEC00A364991ED001AB7EEFB
:10117000000A11EE200ABCEEC00A10EE101A2C4A2A
:101180000C32116038E02C48006807281AD12B492E
:101190000868411C294A1160314951F8201000EEBD
:1011A000101AF8EEC00A274991ED001AB7EE000AAE
:1011B00011EE200ABCEEC00A10EE101A1C4A0C32C6
:1011C000116019E01D490868411C1C4A116025493D
:1011D00051F8201000EE101AF8EEC00A194991EDEE
:1011E000001AB7EE000A11EE200ABCEEC00A10EE9B
:1011F000101A0F4A0C3211600D481C38006840F07C
:1012000001000B491C39086009482838006840F083
:1012100001000749283908601C20FFF787FA62B6E9
:1012200010BD0000000002404038024004000020D1
:1012300028040040080000201000002024000020A6
:101240002800002020000020A80C002048030020D7
:1012500068060020E812002088090020C80F00203E
:1012600008160020281900200348406920F02000BB
:10127000014948617047000000000240034840698E
:1012800040F0200001494861704700000000024022
:101290004FF04070E1EE100A70470000BC120008E9
:1012A00000000020481C0000D0010008A019000820
:1012B000481C002060060000340200081006C80028
:1012C0000000080413DC05054006100000020008B9
:1012D0003104310123803F0612EE19100606030087
:1012E000001D04123504124C04126304127B041214
:1012F000920412A90412BF0412D60412EC2810069C
:10130000020400001804122D0412420412570412A1
:101310006C0412800412940412A70412BA0412CCB2
:101320000412DE0412EF30120084121104122104A0
:10133000123004123F04124D04125A0412670412B0
:101340007404127F04128A04129504129E0412A7D8
:101350000412B00412B70412BE0412C40412CA0468
:1013600012CF0412D30412D60412D90443DB05E4CD
:10137000610452DB1852D62852CF3852C44852B7B3
:101380005852A768529578527F88526798524DA854
:101390005230B821C021C852EFD852CCE852A7F839
:1013A000568008565718562D28253056EC4056BF03
:1013B000505692605663705635802588259012D617
:1013C0000412BF0412A704129004127904126104DB
:1013D000124A04123304261DB411281006F001002D
:1013E00000DA0412C40412AF04129A041285041223
:1013F0007004125C04124804123504122204121004
:101400002C16FEF02AED14110412CB0412BB0412A8
:10141000AC04129D04128F041A821612750412680D
:1014200004125D04125204124704123E04123504E1
:10143000122C04122504121E041218041A124F1240
:101440000D041A096C1606E7191F03110001045256
:101450000320520930521240521E50522C60523E0C
:10146000705252805268905282A0529DB052BBC0BE
:1014700052DCD021D85210E85235F8565C08568517
:101480001856AF2825302538560648563358566129
:101490006856907856BF88520FA8162D08163C142F
:1014A000164B1C165A281E694203167838168740B8
:1014B00016964816A55016B45816C36016D2681270
:1014C000E19812F09C1EFF7303160E84161D8C16F5
:1014D0002C94163B9C164AA01659A81668B016778D
:1014E000B81686BC1695C416A4CC16B3D016C2D8AE
:1014F00012D1A812E0AC26EFB815C0160DF81A1CD0
:10150000001A2B081A3A0C1A49141A581C1A672088
:101510001A76281A85301A94341AA33C12B2BC12D7
:10152000C1C01AD0244BDF025412FDCC1A0C681A29
:101530001B701A2A781A397C1A48841A578C1A6632
:10154000901A75981A84A01A93A41AA2AC1AB1B46E
:101550001AC0B81ECFF8031ADE981AED9C12FC4090
:101560001A0BDC1A1AE01A29E81A38F01A47F41A8A
:1015700056FC1E6504031E740C031E8310031E928A
:1015800018031EA120031EB028031EBF30031ECE69
:1015900034032EDD08031D10041EFB18031E0A541D
:1015A000031E195C031E2864031E376C031E467459
:1015B000031E557C031E6484031E7390031E8298D1
:1015C000031E91A4031EA0AC035EAF00045ECDE039
:1015D000035ECDC80352AF20529130527340525532
:1015E000505237602168217052FB8052DD9052BF0B
:1015F000A052A1B05283C05265D05247E05229F0A8
:1016000021F856FC0856DE1856C02856A2385684D3
:1016100048566658564868562A78258056FD905692
:10162000DFA056C1B056A3C05685D05667E05649D4
:10163000F05A2B0029085AFE185AE0285AC2385A84
:10164000A4485A86585A68685A4A785A2C88299069
:101650005AFFA05AE1B05AC3C05AA5D05A87E05ADF
:1016600069F05E4B00035E2D00049E0FE0035207FD
:1016700010DE16D4031234341E3B44041242401EC2
:1016800049500412504C1E5760041E5E64041E65CF
:101690006C041E6C70041E738A061E7A7C041E8104
:1016A00084045E88E8032D5003129C8C1EA3A004C2
:1016B00012AA981EB0AC0412B7A41EBDB8041EC472
:1016C000BC0412CAB41ED1C80412D7C01EDED40492
:1016D0001EE4D8041EEB08041EF10C041EF71004CF
:1016E0001EFD73061E0434035E0AF8041216F85E2B
:1016F0001C20041E2814051E2E18051634141E3A2C
:1017000024051E402805164628164C2C1652301665
:101710005738165D3C1E6348051E694C05166E4C15
:101720001E7458051E7A5C055E7F5004168A685E3A
:1017300090B403169B781EA080051EA6840516ABE8
:101740008816B09016B69416BB9816C0A016C5A4FD
:1017500016CBA81ED0AC055ED5800416DFC016E4FB
:10176000C45EE9E0031EF49C051EF9A0051EFD9869
:10177000041E02A8032E07AC0315F01611F416166A
:10178000F81A1B001A20041A24081E2904061E2E0B
:1017900008061A32181A37201A3C241A40285E45C7
:1017A000C8041A4E381A533C1E5734061E5C3806BD
:1017B0001A604C1A65541A69581A6D5C5E723004CE
:1017C0001A7B6C1A7F701E8364061E8768065E8C07
:1017D000FC042D44041A98901A9D941EA184061AA4
:1017E000A5A01AA9A41AADA81EB198061EB59C06FC
:1017F0001EB9A0065EBD64041AC5C81AC9CC1ECDA8
:1018000030051ED134051AD5DC1AD9E01ADCE81AE5
:10181000E0EC1AE4F01AE8F41EECB0061EEF8804BF
:101820001EF38C041EF790042AFBC81DC8065E0236
:10183000F8061E0924031E0D28031E102C031E1477
:1018400030035E17AC041E1F40031E2244031E25F6
:1018500048031E292C071E2C30071E3034071E3368
:101860005C031E3764031E3A68031E3D6C031E4171
:1018700070031E4474031E4754071E4B80031E4E04
:1018800084031E5188031E5468071E586C071E5B94
:1018900070071E5E74071E61A0031E64A8031E6805
:1018A000AC031E6BB0031E6EB4031E71B8031E742E
:1018B00094071E7798071E7AC8031E7DCC031E80EE
:1018C000D0031E83AC071E86B0071E89B4071E8C8A
:1018D000B8075E8F14091E95F4031E98F8031E9B2B
:1018E000FC031E9E00041EA1D8071EA3DC075EA6F3
:1018F00030091EAC18045EAF44050DFF60090D9160
:10190000600905FF9005899003FF010004018B0425
:1019100003FFDC0504018B0403C4EE02040DC610B2
:101920000E05C6900DC64006034C960004034C2CD1
:101930000104024DC204034C580204094E58034CE2
:10194000840304034C1A0404024DB004034C4605FE
:10195000040D5240060D2AE0150D2E80140D321094
:10196000160D32B4140D2E44160D2EE4140D3284CF
:101970000B0D6218150D2EA8050D3238070D320C0F
:10198000170D2E7C150D2E3C170D329C070DFF10E8
:101990000E0DFF00190DFF00190D4F00190000007A
:040000050800019559
:00000001FF
